{
  "contractName": "Dex",
  "abi": [
    {
      "inputs": [],
      "stateMutability": "nonpayable",
      "type": "constructor"
    },
    {
      "anonymous": false,
      "inputs": [
        {
          "indexed": false,
          "internalType": "uint256",
          "name": "tradeId",
          "type": "uint256"
        },
        {
          "indexed": false,
          "internalType": "uint256",
          "name": "orderId",
          "type": "uint256"
        },
        {
          "indexed": true,
          "internalType": "bytes32",
          "name": "ticker",
          "type": "bytes32"
        },
        {
          "indexed": true,
          "internalType": "address",
          "name": "trader1",
          "type": "address"
        },
        {
          "indexed": true,
          "internalType": "address",
          "name": "trader2",
          "type": "address"
        },
        {
          "indexed": false,
          "internalType": "uint256",
          "name": "amount",
          "type": "uint256"
        },
        {
          "indexed": false,
          "internalType": "uint256",
          "name": "price",
          "type": "uint256"
        },
        {
          "indexed": false,
          "internalType": "uint256",
          "name": "date",
          "type": "uint256"
        }
      ],
      "name": "NewTrade",
      "type": "event"
    },
    {
      "inputs": [],
      "name": "admin",
      "outputs": [
        {
          "internalType": "address",
          "name": "",
          "type": "address"
        }
      ],
      "stateMutability": "view",
      "type": "function"
    },
    {
      "inputs": [],
      "name": "nextOrderId",
      "outputs": [
        {
          "internalType": "uint256",
          "name": "",
          "type": "uint256"
        }
      ],
      "stateMutability": "view",
      "type": "function"
    },
    {
      "inputs": [],
      "name": "nextTradeId",
      "outputs": [
        {
          "internalType": "uint256",
          "name": "",
          "type": "uint256"
        }
      ],
      "stateMutability": "view",
      "type": "function"
    },
    {
      "inputs": [
        {
          "internalType": "bytes32",
          "name": "",
          "type": "bytes32"
        },
        {
          "internalType": "uint256",
          "name": "",
          "type": "uint256"
        },
        {
          "internalType": "uint256",
          "name": "",
          "type": "uint256"
        }
      ],
      "name": "orderBook",
      "outputs": [
        {
          "internalType": "uint256",
          "name": "id",
          "type": "uint256"
        },
        {
          "internalType": "address",
          "name": "trader",
          "type": "address"
        },
        {
          "internalType": "enum Dex.Side",
          "name": "side",
          "type": "uint8"
        },
        {
          "internalType": "bytes32",
          "name": "ticker",
          "type": "bytes32"
        },
        {
          "internalType": "uint256",
          "name": "amount",
          "type": "uint256"
        },
        {
          "internalType": "uint256",
          "name": "filled",
          "type": "uint256"
        },
        {
          "internalType": "uint256",
          "name": "price",
          "type": "uint256"
        },
        {
          "internalType": "uint256",
          "name": "date",
          "type": "uint256"
        }
      ],
      "stateMutability": "view",
      "type": "function"
    },
    {
      "inputs": [
        {
          "internalType": "uint256",
          "name": "",
          "type": "uint256"
        }
      ],
      "name": "tokenList",
      "outputs": [
        {
          "internalType": "bytes32",
          "name": "",
          "type": "bytes32"
        }
      ],
      "stateMutability": "view",
      "type": "function"
    },
    {
      "inputs": [
        {
          "internalType": "bytes32",
          "name": "",
          "type": "bytes32"
        }
      ],
      "name": "tokens",
      "outputs": [
        {
          "internalType": "bytes32",
          "name": "ticker",
          "type": "bytes32"
        },
        {
          "internalType": "address",
          "name": "tokenAddress",
          "type": "address"
        }
      ],
      "stateMutability": "view",
      "type": "function"
    },
    {
      "inputs": [
        {
          "internalType": "address",
          "name": "",
          "type": "address"
        },
        {
          "internalType": "bytes32",
          "name": "",
          "type": "bytes32"
        }
      ],
      "name": "traderBalances",
      "outputs": [
        {
          "internalType": "uint256",
          "name": "",
          "type": "uint256"
        }
      ],
      "stateMutability": "view",
      "type": "function"
    },
    {
      "inputs": [
        {
          "internalType": "bytes32",
          "name": "ticker",
          "type": "bytes32"
        },
        {
          "internalType": "enum Dex.Side",
          "name": "side",
          "type": "uint8"
        }
      ],
      "name": "getOrders",
      "outputs": [
        {
          "components": [
            {
              "internalType": "uint256",
              "name": "id",
              "type": "uint256"
            },
            {
              "internalType": "address",
              "name": "trader",
              "type": "address"
            },
            {
              "internalType": "enum Dex.Side",
              "name": "side",
              "type": "uint8"
            },
            {
              "internalType": "bytes32",
              "name": "ticker",
              "type": "bytes32"
            },
            {
              "internalType": "uint256",
              "name": "amount",
              "type": "uint256"
            },
            {
              "internalType": "uint256",
              "name": "filled",
              "type": "uint256"
            },
            {
              "internalType": "uint256",
              "name": "price",
              "type": "uint256"
            },
            {
              "internalType": "uint256",
              "name": "date",
              "type": "uint256"
            }
          ],
          "internalType": "struct Dex.Order[]",
          "name": "",
          "type": "tuple[]"
        }
      ],
      "stateMutability": "view",
      "type": "function"
    },
    {
      "inputs": [],
      "name": "getTokens",
      "outputs": [
        {
          "components": [
            {
              "internalType": "bytes32",
              "name": "ticker",
              "type": "bytes32"
            },
            {
              "internalType": "address",
              "name": "tokenAddress",
              "type": "address"
            }
          ],
          "internalType": "struct Dex.Token[]",
          "name": "",
          "type": "tuple[]"
        }
      ],
      "stateMutability": "view",
      "type": "function"
    },
    {
      "inputs": [
        {
          "internalType": "bytes32",
          "name": "ticker",
          "type": "bytes32"
        },
        {
          "internalType": "address",
          "name": "tokenAddress",
          "type": "address"
        }
      ],
      "name": "addToken",
      "outputs": [],
      "stateMutability": "nonpayable",
      "type": "function"
    },
    {
      "inputs": [
        {
          "internalType": "uint256",
          "name": "amount",
          "type": "uint256"
        },
        {
          "internalType": "bytes32",
          "name": "ticker",
          "type": "bytes32"
        }
      ],
      "name": "deposit",
      "outputs": [],
      "stateMutability": "nonpayable",
      "type": "function"
    },
    {
      "inputs": [
        {
          "internalType": "uint256",
          "name": "amount",
          "type": "uint256"
        },
        {
          "internalType": "bytes32",
          "name": "ticker",
          "type": "bytes32"
        }
      ],
      "name": "withdraw",
      "outputs": [],
      "stateMutability": "nonpayable",
      "type": "function"
    },
    {
      "inputs": [
        {
          "internalType": "bytes32",
          "name": "ticker",
          "type": "bytes32"
        },
        {
          "internalType": "uint256",
          "name": "amount",
          "type": "uint256"
        },
        {
          "internalType": "uint256",
          "name": "price",
          "type": "uint256"
        },
        {
          "internalType": "enum Dex.Side",
          "name": "side",
          "type": "uint8"
        }
      ],
      "name": "createLimitOrder",
      "outputs": [],
      "stateMutability": "nonpayable",
      "type": "function"
    },
    {
      "inputs": [
        {
          "internalType": "bytes32",
          "name": "ticker",
          "type": "bytes32"
        },
        {
          "internalType": "uint256",
          "name": "amount",
          "type": "uint256"
        },
        {
          "internalType": "enum Dex.Side",
          "name": "side",
          "type": "uint8"
        }
      ],
      "name": "createMarketOrder",
      "outputs": [],
      "stateMutability": "nonpayable",
      "type": "function"
    }
  ],
  "bytecode": "0x608060405234801561000f575f80fd5b503360045f6101000a81548173ffffffffffffffffffffffffffffffffffffffff021916908373ffffffffffffffffffffffffffffffffffffffff1602179055506132458061005d5f395ff3fe608060405234801561000f575f80fd5b50600436106100e8575f3560e01c80639776aacf1161008a578063aa6ca80811610064578063aa6ca80814610274578063c9630cb014610292578063d9c0c950146102ae578063f851a440146102ca576100e8565b80639776aacf1461020c5780639ead722214610228578063a8d2021a14610258576100e8565b806372ce957e116100c657806372ce957e146101715780637f2c6246146101a1578063813ad083146101bd578063904194a3146101db576100e8565b80630bb431b6146100ec5780632a58b3301461012357806346e9658b14610141575b5f80fd5b610106600480360381019061010191906125c2565b6102e8565b60405161011a9897969594939291906126e2565b60405180910390f35b61012b61037d565b604051610138919061275e565b60405180910390f35b61015b6004803603810190610156919061279a565b610383565b604051610168919061295d565b60405180910390f35b61018b600480360381019061018691906129a7565b6104de565b604051610198919061275e565b60405180910390f35b6101bb60048036038101906101b691906129e5565b6104fe565b005b6101c56115b4565b6040516101d2919061275e565b60405180910390f35b6101f560048036038101906101f09190612a35565b6115ba565b604051610203929190612a60565b60405180910390f35b61022660048036038101906102219190612a87565b6115f8565b005b610242600480360381019061023d9190612ac5565b61173d565b60405161024f9190612af0565b60405180910390f35b610272600480360381019061026d9190612b09565b61175d565b005b61027c6119a2565b6040516102899190612c1c565b60405180910390f35b6102ac60048036038101906102a79190612b09565b611ae9565b005b6102c860048036038101906102c39190612c3c565b611ca1565b005b6102d2612502565b6040516102df9190612ca0565b60405180910390f35b6003602052825f5260405f20602052815f5260405f20818154811061030b575f80fd5b905f5260205f2090600702015f925092505050805f015490806001015f9054906101000a900473ffffffffffffffffffffffffffffffffffffffff16908060010160149054906101000a900460ff16908060020154908060030154908060040154908060050154908060060154905088565b60055481565b606060035f8481526020019081526020015f205f8360018111156103aa576103a9612660565b5b81526020019081526020015f20805480602002602001604051908101604052809291908181526020015f905b828210156104d2578382905f5260205f209060070201604051806101000160405290815f8201548152602001600182015f9054906101000a900473ffffffffffffffffffffffffffffffffffffffff1673ffffffffffffffffffffffffffffffffffffffff1673ffffffffffffffffffffffffffffffffffffffff1681526020016001820160149054906101000a900460ff16600181111561047b5761047a612660565b5b600181111561048d5761048c612660565b5b815260200160028201548152602001600382015481526020016004820154815260200160058201548152602001600682015481525050815260200190600101906103d6565b50505050905092915050565b6002602052815f5260405f20602052805f5260405f205f91509150505481565b825f73ffffffffffffffffffffffffffffffffffffffff165f808381526020019081526020015f206001015f9054906101000a900473ffffffffffffffffffffffffffffffffffffffff1673ffffffffffffffffffffffffffffffffffffffff160361059f576040517f08c379a000000000000000000000000000000000000000000000000000000000815260040161059690612d13565b60405180910390fd5b837f44414900000000000000000000000000000000000000000000000000000000008103610602576040517f08c379a00000000000000000000000000000000000000000000000000000000081526004016105f990612d7b565b60405180910390fd5b60018081111561061557610614612660565b5b83600181111561062857610627612660565b5b036106bd578360025f3373ffffffffffffffffffffffffffffffffffffffff1673ffffffffffffffffffffffffffffffffffffffff1681526020019081526020015f205f8781526020019081526020015f205410156106bc576040517f08c379a00000000000000000000000000000000000000000000000000000000081526004016106b390612de3565b60405180910390fd5b5b5f60035f8781526020019081526020015f205f8060018111156106e3576106e2612660565b5b8660018111156106f6576106f5612660565b5b14610701575f610704565b60015b600181111561071657610715612660565b5b81526020019081526020015f2090505f808690505b82805490508210801561073d57505f81115b15611359575f83838154811061075657610755612e01565b5b905f5260205f2090600702016004015484848154811061077957610778612e01565b5b905f5260205f209060070201600301546107939190612e5b565b90505f8183116107a357826107a5565b815b905080836107b39190612e5b565b9250808585815481106107c9576107c8612e01565b5b905f5260205f209060070201600401546107e39190612e8e565b8585815481106107f6576107f5612e01565b5b905f5260205f209060070201600401819055503373ffffffffffffffffffffffffffffffffffffffff1685858154811061083357610832612e01565b5b905f5260205f2090600702016001015f9054906101000a900473ffffffffffffffffffffffffffffffffffffffff1673ffffffffffffffffffffffffffffffffffffffff168b7fdb0c486e680ba8026643e6a85f8d157b5e7bcd4b32b54d564542570a9eb204166006548989815481106108b0576108af612e01565b5b905f5260205f2090600702015f0154868b8b815481106108d3576108d2612e01565b5b905f5260205f20906007020160050154426040516108f5959493929190612ec1565b60405180910390a46001808111156109105761090f612660565b5b88600181111561092357610922612660565b5b03610da7578060025f3373ffffffffffffffffffffffffffffffffffffffff1673ffffffffffffffffffffffffffffffffffffffff1681526020019081526020015f205f8c81526020019081526020015f20546109809190612e5b565b60025f3373ffffffffffffffffffffffffffffffffffffffff1673ffffffffffffffffffffffffffffffffffffffff1681526020019081526020015f205f8c81526020019081526020015f20819055508484815481106109e3576109e2612e01565b5b905f5260205f20906007020160050154816109fe9190612f12565b60025f3373ffffffffffffffffffffffffffffffffffffffff1673ffffffffffffffffffffffffffffffffffffffff1681526020019081526020015f205f7f444149000000000000000000000000000000000000000000000000000000000081526020019081526020015f2054610a759190612e8e565b60025f3373ffffffffffffffffffffffffffffffffffffffff1673ffffffffffffffffffffffffffffffffffffffff1681526020019081526020015f205f7f444149000000000000000000000000000000000000000000000000000000000081526020019081526020015f20819055508060025f878781548110610afc57610afb612e01565b5b905f5260205f2090600702016001015f9054906101000a900473ffffffffffffffffffffffffffffffffffffffff1673ffffffffffffffffffffffffffffffffffffffff1673ffffffffffffffffffffffffffffffffffffffff1681526020019081526020015f205f8c81526020019081526020015f2054610b7e9190612e8e565b60025f878781548110610b9457610b93612e01565b5b905f5260205f2090600702016001015f9054906101000a900473ffffffffffffffffffffffffffffffffffffffff1673ffffffffffffffffffffffffffffffffffffffff1673ffffffffffffffffffffffffffffffffffffffff1681526020019081526020015f205f8c81526020019081526020015f2081905550848481548110610c2257610c21612e01565b5b905f5260205f2090600702016005015481610c3d9190612f12565b60025f878781548110610c5357610c52612e01565b5b905f5260205f2090600702016001015f9054906101000a900473ffffffffffffffffffffffffffffffffffffffff1673ffffffffffffffffffffffffffffffffffffffff1673ffffffffffffffffffffffffffffffffffffffff1681526020019081526020015f205f7f444149000000000000000000000000000000000000000000000000000000000081526020019081526020015f2054610cf59190612e5b565b60025f878781548110610d0b57610d0a612e01565b5b905f5260205f2090600702016001015f9054906101000a900473ffffffffffffffffffffffffffffffffffffffff1673ffffffffffffffffffffffffffffffffffffffff1673ffffffffffffffffffffffffffffffffffffffff1681526020019081526020015f205f7f444149000000000000000000000000000000000000000000000000000000000081526020019081526020015f20819055505b5f6001811115610dba57610db9612660565b5b886001811115610dcd57610dcc612660565b5b0361132d57848481548110610de557610de4612e01565b5b905f5260205f2090600702016005015481610e009190612f12565b60025f3373ffffffffffffffffffffffffffffffffffffffff1673ffffffffffffffffffffffffffffffffffffffff1681526020019081526020015f205f7f444149000000000000000000000000000000000000000000000000000000000081526020019081526020015f20541015610eae576040517f08c379a0000000000000000000000000000000000000000000000000000000008152600401610ea590612f9d565b60405180910390fd5b8060025f3373ffffffffffffffffffffffffffffffffffffffff1673ffffffffffffffffffffffffffffffffffffffff1681526020019081526020015f205f8c81526020019081526020015f2054610f069190612e8e565b60025f3373ffffffffffffffffffffffffffffffffffffffff1673ffffffffffffffffffffffffffffffffffffffff1681526020019081526020015f205f8c81526020019081526020015f2081905550848481548110610f6957610f68612e01565b5b905f5260205f2090600702016005015481610f849190612f12565b60025f3373ffffffffffffffffffffffffffffffffffffffff1673ffffffffffffffffffffffffffffffffffffffff1681526020019081526020015f205f7f444149000000000000000000000000000000000000000000000000000000000081526020019081526020015f2054610ffb9190612e5b565b60025f3373ffffffffffffffffffffffffffffffffffffffff1673ffffffffffffffffffffffffffffffffffffffff1681526020019081526020015f205f7f444149000000000000000000000000000000000000000000000000000000000081526020019081526020015f20819055508060025f87878154811061108257611081612e01565b5b905f5260205f2090600702016001015f9054906101000a900473ffffffffffffffffffffffffffffffffffffffff1673ffffffffffffffffffffffffffffffffffffffff1673ffffffffffffffffffffffffffffffffffffffff1681526020019081526020015f205f8c81526020019081526020015f20546111049190612e5b565b60025f87878154811061111a57611119612e01565b5b905f5260205f2090600702016001015f9054906101000a900473ffffffffffffffffffffffffffffffffffffffff1673ffffffffffffffffffffffffffffffffffffffff1673ffffffffffffffffffffffffffffffffffffffff1681526020019081526020015f205f8c81526020019081526020015f20819055508484815481106111a8576111a7612e01565b5b905f5260205f20906007020160050154816111c39190612f12565b60025f8787815481106111d9576111d8612e01565b5b905f5260205f2090600702016001015f9054906101000a900473ffffffffffffffffffffffffffffffffffffffff1673ffffffffffffffffffffffffffffffffffffffff1673ffffffffffffffffffffffffffffffffffffffff1681526020019081526020015f205f7f444149000000000000000000000000000000000000000000000000000000000081526020019081526020015f205461127b9190612e8e565b60025f87878154811061129157611290612e01565b5b905f5260205f2090600702016001015f9054906101000a900473ffffffffffffffffffffffffffffffffffffffff1673ffffffffffffffffffffffffffffffffffffffff1673ffffffffffffffffffffffffffffffffffffffff1681526020019081526020015f205f7f444149000000000000000000000000000000000000000000000000000000000081526020019081526020015f20819055505b60065f81548092919061133f90612fbb565b9190505550838061134f90612fbb565b945050505061072b565b5f91505b8280549050821080156113b3575082828154811061137e5761137d612e01565b5b905f5260205f209060070201600301548383815481106113a1576113a0612e01565b5b905f5260205f20906007020160040154145b156115aa575f8290505b600184805490506113ce9190612e5b565b81101561150b57836001826113e39190612e8e565b815481106113f4576113f3612e01565b5b905f5260205f20906007020184828154811061141357611412612e01565b5b905f5260205f2090600702015f820154815f0155600182015f9054906101000a900473ffffffffffffffffffffffffffffffffffffffff16816001015f6101000a81548173ffffffffffffffffffffffffffffffffffffffff021916908373ffffffffffffffffffffffffffffffffffffffff1602179055506001820160149054906101000a900460ff168160010160146101000a81548160ff021916908360018111156114c4576114c3612660565b5b0217905550600282015481600201556003820154816003015560048201548160040155600582015481600501556006820154816006015590505080806001019150506113bd565b508280548061151d5761151c613002565b5b600190038181905f5260205f2090600702015f8082015f9055600182015f6101000a81549073ffffffffffffffffffffffffffffffffffffffff02191690556001820160146101000a81549060ff0219169055600282015f9055600382015f9055600482015f9055600582015f9055600682015f90555050905581806115a290612fbb565b92505061135d565b5050505050505050565b60065481565b5f602052805f5260405f205f91509050805f015490806001015f9054906101000a900473ffffffffffffffffffffffffffffffffffffffff16905082565b60045f9054906101000a900473ffffffffffffffffffffffffffffffffffffffff1673ffffffffffffffffffffffffffffffffffffffff163373ffffffffffffffffffffffffffffffffffffffff1614611687576040517f08c379a000000000000000000000000000000000000000000000000000000000815260040161167e90613079565b60405180910390fd5b60405180604001604052808381526020018273ffffffffffffffffffffffffffffffffffffffff168152505f808481526020019081526020015f205f820151815f01556020820151816001015f6101000a81548173ffffffffffffffffffffffffffffffffffffffff021916908373ffffffffffffffffffffffffffffffffffffffff160217905550905050600182908060018154018082558091505060019003905f5260205f20015f90919091909150555050565b6001818154811061174c575f80fd5b905f5260205f20015f915090505481565b805f73ffffffffffffffffffffffffffffffffffffffff165f808381526020019081526020015f206001015f9054906101000a900473ffffffffffffffffffffffffffffffffffffffff1673ffffffffffffffffffffffffffffffffffffffff16036117fe576040517f08c379a00000000000000000000000000000000000000000000000000000000081526004016117f590612d13565b60405180910390fd5b8260025f3373ffffffffffffffffffffffffffffffffffffffff1673ffffffffffffffffffffffffffffffffffffffff1681526020019081526020015f205f8481526020019081526020015f2054101561188d576040517f08c379a0000000000000000000000000000000000000000000000000000000008152600401611884906130e1565b60405180910390fd5b8260025f3373ffffffffffffffffffffffffffffffffffffffff1673ffffffffffffffffffffffffffffffffffffffff1681526020019081526020015f205f8481526020019081526020015f205f8282546118e89190612e5b565b925050819055505f808381526020019081526020015f206001015f9054906101000a900473ffffffffffffffffffffffffffffffffffffffff1673ffffffffffffffffffffffffffffffffffffffff1663a9059cbb33856040518363ffffffff1660e01b815260040161195c9291906130ff565b6020604051808303815f875af1158015611978573d5f803e3d5ffd5b505050506040513d601f19601f8201168201806040525081019061199c919061315b565b50505050565b60605f60018054905067ffffffffffffffff8111156119c4576119c3613186565b5b6040519080825280602002602001820160405280156119fd57816020015b6119ea612527565b8152602001906001900390816119e25790505b5090505f5b600180549050811015611ae15760405180604001604052805f8060018581548110611a3057611a2f612e01565b5b905f5260205f20015481526020019081526020015f205f015481526020015f8060018581548110611a6457611a63612e01565b5b905f5260205f20015481526020019081526020015f206001015f9054906101000a900473ffffffffffffffffffffffffffffffffffffffff1673ffffffffffffffffffffffffffffffffffffffff16815250828281518110611ac957611ac8612e01565b5b60200260200101819052508080600101915050611a02565b508091505090565b805f73ffffffffffffffffffffffffffffffffffffffff165f808381526020019081526020015f206001015f9054906101000a900473ffffffffffffffffffffffffffffffffffffffff1673ffffffffffffffffffffffffffffffffffffffff1603611b8a576040517f08c379a0000000000000000000000000000000000000000000000000000000008152600401611b8190612d13565b60405180910390fd5b5f808381526020019081526020015f206001015f9054906101000a900473ffffffffffffffffffffffffffffffffffffffff1673ffffffffffffffffffffffffffffffffffffffff166323b872dd3330866040518463ffffffff1660e01b8152600401611bf9939291906131b3565b6020604051808303815f875af1158015611c15573d5f803e3d5ffd5b505050506040513d601f19601f82011682018060405250810190611c39919061315b565b508260025f3373ffffffffffffffffffffffffffffffffffffffff1673ffffffffffffffffffffffffffffffffffffffff1681526020019081526020015f205f8481526020019081526020015f205f828254611c959190612e8e565b92505081905550505050565b835f73ffffffffffffffffffffffffffffffffffffffff165f808381526020019081526020015f206001015f9054906101000a900473ffffffffffffffffffffffffffffffffffffffff1673ffffffffffffffffffffffffffffffffffffffff1603611d42576040517f08c379a0000000000000000000000000000000000000000000000000000000008152600401611d3990612d13565b60405180910390fd5b847f44414900000000000000000000000000000000000000000000000000000000008103611da5576040517f08c379a0000000000000000000000000000000000000000000000000000000008152600401611d9c90612d7b565b60405180910390fd5b600180811115611db857611db7612660565b5b836001811115611dcb57611dca612660565b5b03611e64578460025f3373ffffffffffffffffffffffffffffffffffffffff1673ffffffffffffffffffffffffffffffffffffffff1681526020019081526020015f205f8881526020019081526020015f20541015611e5f576040517f08c379a0000000000000000000000000000000000000000000000000000000008152600401611e5690612de3565b60405180910390fd5b611f1f565b8385611e709190612f12565b60025f3373ffffffffffffffffffffffffffffffffffffffff1673ffffffffffffffffffffffffffffffffffffffff1681526020019081526020015f205f7f444149000000000000000000000000000000000000000000000000000000000081526020019081526020015f20541015611f1e576040517f08c379a0000000000000000000000000000000000000000000000000000000008152600401611f1590612f9d565b60405180910390fd5b5b5f60035f8881526020019081526020015f205f856001811115611f4557611f44612660565b5b81526020019081526020015f2090508060405180610100016040528060055481526020013373ffffffffffffffffffffffffffffffffffffffff168152602001866001811115611f9857611f97612660565b5b81526020018981526020018881526020015f815260200187815260200142815250908060018154018082558091505060019003905f5260205f2090600702015f909190919091505f820151815f01556020820151816001015f6101000a81548173ffffffffffffffffffffffffffffffffffffffff021916908373ffffffffffffffffffffffffffffffffffffffff16021790555060408201518160010160146101000a81548160ff0219169083600181111561205857612057612660565b5b0217905550606082015181600201556080820151816003015560a0820151816004015560c0820151816005015560e0820151816006015550505f808280549050116120a3575f6120b5565b600182805490506120b49190612e5b565b5b90505b5f8111156124e1575f60018111156120d3576120d2612660565b5b8560018111156120e6576120e5612660565b5b148015612142575081818154811061210157612100612e01565b5b905f5260205f209060070201600501548260018361211f9190612e5b565b815481106121305761212f612e01565b5b905f5260205f20906007020160050154115b6124e15760018081111561215957612158612660565b5b85600181111561216c5761216b612660565b5b1480156121c8575081818154811061218757612186612e01565b5b905f5260205f20906007020160050154826001836121a59190612e5b565b815481106121b6576121b5612e01565b5b905f5260205f20906007020160050154105b6124e1575f826001836121db9190612e5b565b815481106121ec576121eb612e01565b5b905f5260205f209060070201604051806101000160405290815f8201548152602001600182015f9054906101000a900473ffffffffffffffffffffffffffffffffffffffff1673ffffffffffffffffffffffffffffffffffffffff1673ffffffffffffffffffffffffffffffffffffffff1681526020016001820160149054906101000a900460ff16600181111561228757612286612660565b5b600181111561229957612298612660565b5b81526020016002820154815260200160038201548152602001600482015481526020016005820154815260200160068201548152505090508282815481106122e4576122e3612e01565b5b905f5260205f209060070201836001846122fe9190612e5b565b8154811061230f5761230e612e01565b5b905f5260205f2090600702015f820154815f0155600182015f9054906101000a900473ffffffffffffffffffffffffffffffffffffffff16816001015f6101000a81548173ffffffffffffffffffffffffffffffffffffffff021916908373ffffffffffffffffffffffffffffffffffffffff1602179055506001820160149054906101000a900460ff168160010160146101000a81548160ff021916908360018111156123c0576123bf612660565b5b021790555060028201548160020155600382015481600301556004820154816004015560058201548160050155600682015481600601559050508083838154811061240e5761240d612e01565b5b905f5260205f2090600702015f820151815f01556020820151816001015f6101000a81548173ffffffffffffffffffffffffffffffffffffffff021916908373ffffffffffffffffffffffffffffffffffffffff16021790555060408201518160010160146101000a81548160ff0219169083600181111561249357612492612660565b5b0217905550606082015181600201556080820151816003015560a0820151816004015560c0820151816005015560e0820151816006015590505081806124d8906131e8565b925050506120b8565b60055f8154809291906124f390612fbb565b91905055505050505050505050565b60045f9054906101000a900473ffffffffffffffffffffffffffffffffffffffff1681565b60405180604001604052805f80191681526020015f73ffffffffffffffffffffffffffffffffffffffff1681525090565b5f80fd5b5f819050919050565b61256e8161255c565b8114612578575f80fd5b50565b5f8135905061258981612565565b92915050565b5f819050919050565b6125a18161258f565b81146125ab575f80fd5b50565b5f813590506125bc81612598565b92915050565b5f805f606084860312156125d9576125d8612558565b5b5f6125e68682870161257b565b93505060206125f7868287016125ae565b9250506040612608868287016125ae565b9150509250925092565b61261b8161258f565b82525050565b5f73ffffffffffffffffffffffffffffffffffffffff82169050919050565b5f61264a82612621565b9050919050565b61265a81612640565b82525050565b7f4e487b71000000000000000000000000000000000000000000000000000000005f52602160045260245ffd5b6002811061269e5761269d612660565b5b50565b5f8190506126ae8261268d565b919050565b5f6126bd826126a1565b9050919050565b6126cd816126b3565b82525050565b6126dc8161255c565b82525050565b5f610100820190506126f65f83018b612612565b612703602083018a612651565b61271060408301896126c4565b61271d60608301886126d3565b61272a6080830187612612565b61273760a0830186612612565b61274460c0830185612612565b61275160e0830184612612565b9998505050505050505050565b5f6020820190506127715f830184612612565b92915050565b60028110612783575f80fd5b50565b5f8135905061279481612777565b92915050565b5f80604083850312156127b0576127af612558565b5b5f6127bd8582860161257b565b92505060206127ce85828601612786565b9150509250929050565b5f81519050919050565b5f82825260208201905092915050565b5f819050602082019050919050565b61280a8161258f565b82525050565b61281981612640565b82525050565b612828816126b3565b82525050565b6128378161255c565b82525050565b61010082015f8201516128525f850182612801565b5060208201516128656020850182612810565b506040820151612878604085018261281f565b50606082015161288b606085018261282e565b50608082015161289e6080850182612801565b5060a08201516128b160a0850182612801565b5060c08201516128c460c0850182612801565b5060e08201516128d760e0850182612801565b50505050565b5f6128e8838361283d565b6101008301905092915050565b5f602082019050919050565b5f61290b826127d8565b61291581856127e2565b9350612920836127f2565b805f5b8381101561295057815161293788826128dd565b9750612942836128f5565b925050600181019050612923565b5085935050505092915050565b5f6020820190508181035f8301526129758184612901565b905092915050565b61298681612640565b8114612990575f80fd5b50565b5f813590506129a18161297d565b92915050565b5f80604083850312156129bd576129bc612558565b5b5f6129ca85828601612993565b92505060206129db8582860161257b565b9150509250929050565b5f805f606084860312156129fc576129fb612558565b5b5f612a098682870161257b565b9350506020612a1a868287016125ae565b9250506040612a2b86828701612786565b9150509250925092565b5f60208284031215612a4a57612a49612558565b5b5f612a578482850161257b565b91505092915050565b5f604082019050612a735f8301856126d3565b612a806020830184612651565b9392505050565b5f8060408385031215612a9d57612a9c612558565b5b5f612aaa8582860161257b565b9250506020612abb85828601612993565b9150509250929050565b5f60208284031215612ada57612ad9612558565b5b5f612ae7848285016125ae565b91505092915050565b5f602082019050612b035f8301846126d3565b92915050565b5f8060408385031215612b1f57612b1e612558565b5b5f612b2c858286016125ae565b9250506020612b3d8582860161257b565b9150509250929050565b5f81519050919050565b5f82825260208201905092915050565b5f819050602082019050919050565b604082015f820151612b845f85018261282e565b506020820151612b976020850182612810565b50505050565b5f612ba88383612b70565b60408301905092915050565b5f602082019050919050565b5f612bca82612b47565b612bd48185612b51565b9350612bdf83612b61565b805f5b83811015612c0f578151612bf68882612b9d565b9750612c0183612bb4565b925050600181019050612be2565b5085935050505092915050565b5f6020820190508181035f830152612c348184612bc0565b905092915050565b5f805f8060808587031215612c5457612c53612558565b5b5f612c618782880161257b565b9450506020612c72878288016125ae565b9350506040612c83878288016125ae565b9250506060612c9487828801612786565b91505092959194509250565b5f602082019050612cb35f830184612651565b92915050565b5f82825260208201905092915050565b7f7468697320746f6b656e20646f6573206e6f74206578697374000000000000005f82015250565b5f612cfd601983612cb9565b9150612d0882612cc9565b602082019050919050565b5f6020820190508181035f830152612d2a81612cf1565b9050919050565b7f63616e6e6f7420747261646520444149000000000000000000000000000000005f82015250565b5f612d65601083612cb9565b9150612d7082612d31565b602082019050919050565b5f6020820190508181035f830152612d9281612d59565b9050919050565b7f746f6b656e2062616c616e636520746f6f206c6f7700000000000000000000005f82015250565b5f612dcd601583612cb9565b9150612dd882612d99565b602082019050919050565b5f6020820190508181035f830152612dfa81612dc1565b9050919050565b7f4e487b71000000000000000000000000000000000000000000000000000000005f52603260045260245ffd5b7f4e487b71000000000000000000000000000000000000000000000000000000005f52601160045260245ffd5b5f612e658261258f565b9150612e708361258f565b9250828203905081811115612e8857612e87612e2e565b5b92915050565b5f612e988261258f565b9150612ea38361258f565b9250828201905080821115612ebb57612eba612e2e565b5b92915050565b5f60a082019050612ed45f830188612612565b612ee16020830187612612565b612eee6040830186612612565b612efb6060830185612612565b612f086080830184612612565b9695505050505050565b5f612f1c8261258f565b9150612f278361258f565b9250828202612f358161258f565b91508282048414831517612f4c57612f4b612e2e565b5b5092915050565b7f6461692062616c616e636520746f6f206c6f77000000000000000000000000005f82015250565b5f612f87601383612cb9565b9150612f9282612f53565b602082019050919050565b5f6020820190508181035f830152612fb481612f7b565b9050919050565b5f612fc58261258f565b91507fffffffffffffffffffffffffffffffffffffffffffffffffffffffffffffffff8203612ff757612ff6612e2e565b5b600182019050919050565b7f4e487b71000000000000000000000000000000000000000000000000000000005f52603160045260245ffd5b7f6f6e6c792061646d696e000000000000000000000000000000000000000000005f82015250565b5f613063600a83612cb9565b915061306e8261302f565b602082019050919050565b5f6020820190508181035f83015261309081613057565b9050919050565b7f62616c616e636520746f6f206c6f7700000000000000000000000000000000005f82015250565b5f6130cb600f83612cb9565b91506130d682613097565b602082019050919050565b5f6020820190508181035f8301526130f8816130bf565b9050919050565b5f6040820190506131125f830185612651565b61311f6020830184612612565b9392505050565b5f8115159050919050565b61313a81613126565b8114613144575f80fd5b50565b5f8151905061315581613131565b92915050565b5f602082840312156131705761316f612558565b5b5f61317d84828501613147565b91505092915050565b7f4e487b71000000000000000000000000000000000000000000000000000000005f52604160045260245ffd5b5f6060820190506131c65f830186612651565b6131d36020830185612651565b6131e06040830184612612565b949350505050565b5f6131f28261258f565b91505f820361320457613203612e2e565b5b60018203905091905056fea2646970667358221220f7af3c394c10c2c070824530a6c3e2e15958e0210b2111d61dc14cdcf8927b8b64736f6c63430008170033",
  "immutableReferences": {},
  "source": "// SPDX-License-Identifier: MIT\npragma solidity ^0.8.23;\npragma experimental ABIEncoderV2;\n\nimport '@openzeppelin/contracts/token/ERC20/IERC20.sol';\nimport '@openzeppelin/contracts/utils/math/Math.sol';\n\ncontract Dex {\n\n    //using SafeMath for uint;\n       \n    enum Side {\n        BUY,\n        SELL\n    }\n    \n    struct Token {\n        bytes32 ticker;\n        address tokenAddress;\n    }\n    \n    struct Order {\n        uint id;\n        address trader;\n        Side side;\n        bytes32 ticker;\n        uint amount;\n        uint filled;\n        uint price;\n        uint date;\n    }\n    \n    mapping(bytes32 => Token) public tokens;\n    bytes32[] public tokenList;\n    mapping(address => mapping(bytes32 => uint)) public traderBalances;\n    mapping(bytes32 => mapping(uint => Order[])) public orderBook;\n    address public admin;\n    uint public nextOrderId;\n    uint public nextTradeId;\n    bytes32 constant DAI = bytes32('DAI');\n    \n    event NewTrade(\n        uint tradeId,\n        uint orderId,\n        bytes32 indexed ticker,\n        address indexed trader1,\n        address indexed trader2,\n        uint amount,\n        uint price,\n        uint date\n    );\n    \n    constructor() {\n        admin = msg.sender;\n    }\n\n    function getOrders(\n      bytes32 ticker, \n      Side side) \n      external \n      view\n      returns(Order[] memory) {\n      return orderBook[ticker][uint(side)];\n    }\n\n    function getTokens() \n      external \n      view \n      returns(Token[] memory) {\n      Token[] memory _tokens = new Token[](tokenList.length);\n      for (uint i = 0; i < tokenList.length; i++) {\n        _tokens[i] = Token(\n          tokens[tokenList[i]].ticker,\n          tokens[tokenList[i]].tokenAddress\n        );\n      }\n      return _tokens;\n    }\n    \n    function addToken(\n        bytes32 ticker,\n        address tokenAddress)\n        onlyAdmin()\n        external {\n        tokens[ticker] = Token(ticker, tokenAddress);\n        tokenList.push(ticker);\n    }\n    \n    function deposit(\n        uint amount,\n        bytes32 ticker)\n        tokenExist(ticker)\n        external {\n        IERC20(tokens[ticker].tokenAddress).transferFrom(\n            msg.sender,\n            address(this),\n            amount\n        );\n        traderBalances[msg.sender][ticker] += amount;\n    }\n    \n    function withdraw(\n        uint amount,\n        bytes32 ticker)\n        tokenExist(ticker)\n        external {\n        require(\n            traderBalances[msg.sender][ticker] >= amount,\n            'balance too low'\n        ); \n        traderBalances[msg.sender][ticker] -= amount;\n        IERC20(tokens[ticker].tokenAddress).transfer(msg.sender, amount);\n    }\n    \n    function createLimitOrder(\n        bytes32 ticker,\n        uint amount,\n        uint price,\n        Side side)\n        tokenExist(ticker)\n        tokenIsNotDai(ticker)\n        external {\n        if(side == Side.SELL) {\n            require(\n                traderBalances[msg.sender][ticker] >= amount, \n                'token balance too low'\n            );\n        } else {\n            require(\n                traderBalances[msg.sender][DAI] >= amount * price, \n                'dai balance too low'\n            );\n        }\n        Order[] storage orders = orderBook[ticker][uint(side)];\n        orders.push(Order(\n            nextOrderId,\n            msg.sender,\n            side,\n            ticker,\n            amount,\n            0,\n            price,\n            block.timestamp \n        ));\n        \n        uint i = orders.length > 0 ? orders.length - 1 : 0;\n        while(i > 0) {\n            if(side == Side.BUY && orders[i - 1].price > orders[i].price) {\n                break;   \n            }\n            if(side == Side.SELL && orders[i - 1].price < orders[i].price) {\n                break;   \n            }\n            Order memory order = orders[i - 1];\n            orders[i - 1] = orders[i];\n            orders[i] = order;\n            i--;\n        }\n        nextOrderId++;\n    }\n    \n    function createMarketOrder(\n        bytes32 ticker,\n        uint amount,\n        Side side)\n        tokenExist(ticker)\n        tokenIsNotDai(ticker)\n        external {\n        if(side == Side.SELL) {\n            require(\n                traderBalances[msg.sender][ticker] >= amount, \n                'token balance too low'\n            );\n        }\n        Order[] storage orders = orderBook[ticker][uint(side == Side.BUY ? Side.SELL : Side.BUY)];\n        uint i;\n        uint remaining = amount;\n        \n        while(i < orders.length && remaining > 0) {\n            uint available = orders[i].amount - orders[i].filled;\n            uint matched = (remaining > available) ? available : remaining;\n            remaining = remaining - matched;\n            orders[i].filled = orders[i].filled + matched;\n            emit NewTrade(\n                nextTradeId,\n                orders[i].id,\n                ticker,\n                orders[i].trader,\n                msg.sender,\n                matched,\n                orders[i].price,\n                block.timestamp\n            );\n            if(side == Side.SELL) {\n                traderBalances[msg.sender][ticker] = traderBalances[msg.sender][ticker] - matched;\n                traderBalances[msg.sender][DAI] = traderBalances[msg.sender][DAI] + (matched * orders[i].price);\n                traderBalances[orders[i].trader][ticker] = traderBalances[orders[i].trader][ticker] + matched;\n                traderBalances[orders[i].trader][DAI] = traderBalances[orders[i].trader][DAI] - (matched * orders[i].price);\n            }\n            if(side == Side.BUY) {\n                require(\n                    traderBalances[msg.sender][DAI] >= matched * (orders[i].price),\n                    'dai balance too low'\n                );\n                traderBalances[msg.sender][ticker] = traderBalances[msg.sender][ticker] + matched;\n                traderBalances[msg.sender][DAI] = traderBalances[msg.sender][DAI] - (matched * (orders[i].price));\n                traderBalances[orders[i].trader][ticker] = traderBalances[orders[i].trader][ticker] - matched;\n                traderBalances[orders[i].trader][DAI] = traderBalances[orders[i].trader][DAI] + (matched * (orders[i].price));\n            }\n            nextTradeId++;\n            i++;\n        }\n        \n        i = 0;\n        while(i < orders.length && orders[i].filled == orders[i].amount) {\n            for(uint j = i; j < orders.length - 1; j++ ) {\n                orders[j] = orders[j + 1];\n            }\n            orders.pop();\n            i++;\n        }\n    }\n   \n    modifier tokenIsNotDai(bytes32 ticker) {\n       require(ticker != DAI, 'cannot trade DAI');\n       _;\n    }     \n    \n    modifier tokenExist(bytes32 ticker) {\n        require(\n            tokens[ticker].tokenAddress != address(0),\n            'this token does not exist'\n        );\n        _;\n    }\n    \n    modifier onlyAdmin() {\n        require(msg.sender == admin, 'only admin');\n        _;\n    }\n}",
  "sourcePath": "/Users/kendallboone/Desktop/dex/contracts/dex.sol",
  "compiler": {
    "name": "solc",
    "version": "0.8.23+commit.f704f362.Emscripten.clang"
  },
  "schemaVersion": "3.4.16",
  "updatedAt": "2023-12-11T17:27:06.602Z",
  "devdoc": {
    "kind": "dev",
    "methods": {},
    "version": 1
  },
  "userdoc": {
    "kind": "user",
    "methods": {},
    "version": 1
  }
}